:100000000C9479000C94A1000C94A1000C94A10014
:100010000C94A1000C94A1000C94A1000C94FA047F
:100020000C94A1000C94A1000C94A1000C94A100CC
:100030000C94A1000C94A1000C94A1000C94A100BC
:100040000C94F5020C9473050C94C3020C949D025D
:100050000C94A1000C94A1000C94A1000C94A1009C
:100060000C94CC030C94A100084AD73B3BCE016E04
:1000700084BCBFFDC12F3D6C74319ABD56833DDAFF
:100080003D00C77F11BED9E4BB4C3E916BAAAABE0E
:10009000000000803F00000000002300260029002F
:1000A00000000000240027002A00000000002500B6
:1000B00028002B00040404040404040402020202C5
:1000C000020203030303030301020408102040801B
:1000D000010204081020010204081020000000089A
:1000E00000020100000304070000000000000000FF
:1000F0000E0F11241FBECFEFD8E0DEBFCDBF11E041
:10010000A0E0B1E0E2ECF6E202C005900D92AC3561
:10011000B107D9F723E0ACE5B1E001C01D92A939E0
:10012000B207E1F710E0C9E7D0E004C02197FE0173
:100130000E944513C837D107C9F70E94030A0C94DF
:100140005F130C9400008091C50190E02091C601DE
:10015000821B91090895CF92DF92EF92FF920F9345
:100160001F93CF93DF936C017A018B01C0E0D0E045
:10017000CE15DF0589F0D8016D918D01D601ED9185
:10018000FC910190F081E02DC6010995892B11F4B5
:100190007E0102C02196ECCFC701DF91CF911F9164
:1001A0000F91FF90EF90DF90CF900895FC01538D59
:1001B000448D252F30E0842F90E0821B930B541741
:1001C00010F0CF96089501970895FC01918D828DCE
:1001D000981761F0828DDF01A80FB11D5D968C919B
:1001E000928D9F5F9F73928F90E008958FEF9FEFA6
:1001F0000895FC01918D828D981731F0828DE80F62
:10020000F11D858D90E008958FEF9FEF0895FC011B
:10021000918D228D892F90E0805C9F4F821B9109E8
:100220008F739927089582E392E00E94070121E0ED
:10023000892B09F420E0822F0895FC01848DDF01D1
:10024000A80FB11DA35ABF4F2C91848D90E0019649
:100250008F739927848FA689B7892C93A089B18938
:100260008C9180648C93938D848D981306C0028842
:10027000F389E02D80818F7D80830895EF92FF9236
:100280000F931F93CF93DF93EC0181E0888F9B8DB9
:100290008C8D981305C0E889F989808185FD24C07B
:1002A000F62E0B8D10E00F5F1F4F0F731127E02EFE
:1002B0008C8DE8120CC00FB607FCFACFE889F989DB
:1002C000808185FFF5CFCE010E941D01F1CF8B8D7E
:1002D000FE01E80FF11DE35AFF4FF0820B8FEA8910
:1002E000FB898081806207C0EE89FF896083E8898D
:1002F000F98980818064808381E090E0DF91CF91F3
:100300001F910F91FF90EF900895CF93DF93EC0131
:10031000888D8823C9F0EA89FB89808185FD05C025
:10032000A889B9898C9186FD0FC00FB607FCF5CF5F
:10033000808185FFF2CFA889B9898C9185FFEDCFA7
:10034000CE010E941D01E7CFDF91CF91089580E09B
:1003500090E0892B29F00E94130181110C94000078
:1003600008953FB7F8948091B2019091B301A091A4
:10037000B401B091B50126B5A89B05C02F3F19F077
:100380000196A11DB11D3FBFBA2FA92F982F882715
:10039000820F911DA11DB11DBC01CD0143E0660F6F
:1003A000771F881F991F4A95D1F708952FB7F894A2
:1003B0006091AE017091AF018091B0019091B10157
:1003C0002FBF089585ED8093BC008091BC0084FD13
:1003D000FCCF10920D02089540918801262F30E045
:1003E000240F311D21323105DCF420910D0224301F
:1003F000C9F4FC0180E090E0861758F43091880140
:100400002191DC01AA59BE4FA30FB11D2C93019677
:10041000F3CF80918801680F6093880180E0089590
:1004200081E0089582E008950895E091C6018091E9
:10043000C501E81730F4F0E0E953FE4F808190E009
:1004400008958FEF9FEF08959091C6018091C501A7
:10045000981750F4E92FF0E0E953FE4F208130E087
:100460009F5F9093C60102C02FEF3FEFC90108952F
:10047000CF92DF92EF92FF920F931F93CF93DF9370
:100480007C01262F972F8A0180910E02882391F0FC
:10049000C62FD72F6E01C40ED51ECC15DD0571F009
:1004A0006991D701ED91FC910190F081E02DC70198
:1004B0000995F3CF642F822F0E94EC01C801DF91D0
:1004C000CF911F910F91FF90EF90DF90CF90089503
:1004D000CF93DF931F92CDB7DEB7698320910E02D1
:1004E0002223D1F020913102203240F021E030E08F
:1004F000FC013383228380E090E015C080910F02DD
:10050000E82FF0E0E05FFD4F998190838F5F80934B
:100510000F028093310205C061E0CE0101960E9476
:10052000EC0181E090E00F90DF91CF910895089564
:1005300080E090E008950E945A131F920F920FB628
:100540000F9211242F933F934F935F936F937F9359
:100550008F939F93AF93BF93EF93FF9382E392E0C8
:100560000E941D01FF91EF91BF91AF919F918F91DB
:100570007F916F915F914F913F912F910F900FBE9F
:100580000F901F9018951F920F920FB60F92112483
:100590002F938F939F93EF93FF93E0914202F091FB
:1005A00043028081E0914802F091490282FD12C02D
:1005B000908180914B028F5F8F7320914C02821744
:1005C00051F0E0914B02F0E0EE5CFD4F958F80938F
:1005D0004B0201C08081FF91EF919F918F912F91EC
:1005E0000F900FBE0F901F9018951F920F920FB68D
:1005F0000F9211242F933F938F939F93AF93BF93A9
:100600008091AE019091AF01A091B001B091B10184
:100610003091AD0126E0230F2D3720F40296A11D65
:10062000B11D05C029E8230F0396A11DB11D20931C
:10063000AD018093AE019093AF01A093B001B09350
:10064000B1018091B2019091B301A091B401B09138
:10065000B5010196A11DB11D8093B2019093B30124
:10066000A093B401B093B501BF91AF919F918F91C9
:100670003F912F910F900FBE0F901F9018954F92A2
:100680005F926F927F928F929F92AF92BF92CF9222
:10069000DF92EF92FF920F931F93CF93DF9300D0DF
:1006A00000D0CDB7DEB78C01DC014D905D906D9030
:1006B0007C90139714968D909D90AD90BC90179759
:1006C00018968D919D910D90BC91A02D89839A8350
:1006D000AB83BC83A3019201C301B2010E94181233
:1006E0006B017C01A5019401C501B4010E9418129F
:1006F0009B01AC01C701B6010E94A70F6B017C01F1
:1007000029813A814B815C81CA01B9010E9418128A
:100710009B01AC01C701B6010E94A70F0E948B127A
:100720006B017C019B01AC01C301B2010E948A10E4
:10073000F8016083718382839383A7019601C501C9
:10074000B4010E948A10D80114966D937D938D9305
:100750009C931797A701960169817A818B819C816F
:100760000E948A10F80160877187828793870F90B3
:100770000F900F900F90DF91CF911F910F91FF90ED
:10078000EF90DF90CF90BF90AF909F908F907F9031
:100790006F905F904F9008951F920F920FB60F9237
:1007A00011242F933F934F935F936F937F938F9376
:1007B0009F93AF93BF93EF93FF938091B900887F8E
:1007C000803609F49CC068F5883209F45BC090F467
:1007D000803109F454C038F4882309F4F6C0883015
:1007E00009F44DC0F6C0883109F44CC0803209F4D8
:1007F0005DC0EFC0803409F468C048F4803309F468
:1008000055C0883309F0E5C080930B02D8C080350D
:1008100009F44FC0883509F45DC0883409F0D9C0A7
:10082000D6C0883909F4C7C0A8F4883709F467C06E
:1008300038F4883609F463C0803709F460C0C9C051
:10084000883809F4B8C0803909F45FC0803809F0ED
:10085000C0C05BC0803B09F486C038F4803A09F41C
:1008600066C0883A09F47FC0B4C0803C09F4A7C0D0
:10087000883C09F4A4C0883B09F48AC0AAC08091CE
:10088000E80110C090910A0280910902981770F552
:10089000E0910A0281E08E0F80930A02F0E0E751B6
:1008A000FE4F80818093BB0085EC86C080930B0255
:1008B0008EC0E0910A0281E08E0F80930A0280913F
:1008C000BB00F0E0E751FE4F808390910A028091D7
:1008D00009026EC0E0910A0281E08E0F80930A0245
:1008E0008091BB00F0E0E751FE4F808380910C02C5
:1008F00081116DC081E08093E70184EA61C083E0EB
:1009000080930D021092AC01CFCF8091AC01803268
:1009100008F051C0E091AC0181E08E0F8093AC01F2
:100920008091BB00F0E0E457FE4F8083BDCF85ECA3
:100930008093BC0010920D028091AC01803230F4A3
:10094000E091AC01F0E0E457FE4F10826091AC0101
:1009500070E0E0918A01F0918B018CE891E00995BB
:100960001092AC0136C084E080930D021092890190
:1009700010928801E0918601F0918701099580919C
:100980008801811105C081E0809388011092660181
:10099000E091890181E08E0F80938901F0E0EA59AE
:1009A000FE4F80818093BB009091890180918801E6
:1009B000981708F479CF85E88093BC000AC085ECCD
:1009C0008093BC0010920D0204C010920B020E9492
:1009D000E201FF91EF91BF91AF919F918F917F9134
:1009E0006F915F914F913F912F910F900FBE0F909C
:1009F0001F9018951F920F920FB60F9211242F93EC
:100A00003F934F935F936F937F938F939F93AF9396
:100A1000BF93EF93FF93E0916401F0916501099515
:100A2000FF91EF91BF91AF919F918F917F916F91C6
:100A30005F914F913F912F910F900FBE0F901F909C
:100A40001895DC0170E0FB01E853FF4FE491149628
:100A5000EC93149750E0FA01E853FF4FE491159698
:100A6000EC9315976C547F4FFB018491E82FF0E0D5
:100A7000EE0FFF1FE655FF4F8591949117969C93BB
:100A80008E931697FA01EC54FF4F449150E0440FB7
:100A9000551F4A565F4FFA018591949119969C9380
:100AA0008E931897FB016491E62FF0E0EE0FFF1F85
:100AB000E056FF4F859194911B969C938E931A97C5
:100AC0002F5F3F4F49E3429FC001439F900D112488
:100AD0008E38FFE69F0710F08DE89FE61D969C93E9
:100AE0008E931C9708951F920F920FB60F921124A8
:100AF0002F933F934F935F936F937F938F939F9326
:100B0000AF93BF93EF93FF938EB5809363018EB540
:100B10008430A9F040F4813091F088F0823079F08F
:100B2000833069F028C0883C89F018F4853039F0AA
:100B300022C0893CA9F08F3FF1F41EBC27C08EB5BE
:100B400090E0909362018093610120C0E091610187
:100B5000F0916201EE0FFF1FE954FE4F818109C041
:100B6000E0916101F0916201EE0FFF1FE954FE4F29
:100B700080818EBD0BC082E591E00E94D7056EB5E5
:100B800070E080E090E04AE00E94E905FF91EF917B
:100B9000BF91AF919F918F917F916F915F914F9195
:100BA0003F912F910F900FBE0F901F9018950097B7
:100BB00069F0FC0101900020E9F73197AF01481B73
:100BC000590BBC0182E392E00C94AB0080E090E012
:100BD00008958F929F92AF92BF920F931F93CF93DE
:100BE000DF93CDB7DEB7A1970FB6F894DEBF0FBE87
:100BF000CDBF19A2423008F44AE08E010F5D1F4FAD
:100C0000842E912CA12CB12CA50194010E94F912E3
:100C1000E62FB901CA0101501109EA3014F4E05D70
:100C200001C0E95CD801EC93232B242B252B61F721
:100C3000C8010E94D705A1960FB6F894DEBF0FBE7B
:100C4000CDBFDF91CF911F910F91BF90AF909F903B
:100C50008F9008954F925F926F927F928F929F92A2
:100C6000AF92BF92CF92DF92EF92FF920F931F93BA
:100C7000CF93DF93CDB7DEB7AA970FB6F894DEBF58
:100C80000FBECDBF498F5A8F6B8F7C8F8D8F9E8FFC
:100C9000C0902903D0902A030D2C000CEE08FF0809
:100CA0006091350370913603AB01770F660B770BBC
:100CB00080912F0390913003092E000CAA0BBB0BDF
:100CC0008A019B01080F191F2A1F3B1FC901B80188
:100CD00022E0822E912CA12CB12CA50194010E941E
:100CE0001B13D701C601821B930BA40BB50B8F8F6F
:100CF00098A3A9A3BAA3C0902B03D0902C030D2CCA
:100D0000000CEE08FF086091370370913803AB01C7
:100D1000770F660B770B8091310390913203092E88
:100D2000000CAA0BBB0B8A019B01080F191F2A1F7D
:100D30003B1FC901B801A50194010E941B13D701F3
:100D4000C601821B930BA40BB50B8BA39CA3ADA375
:100D5000BEA3C0902D03D0902E030D2C000CEE08E6
:100D6000FF086091390370913A03AB01770F660B6E
:100D7000770B8091330390913403092E000CAA0B5A
:100D8000BB0B8A019B01080F191F2A1F3B1FC901BA
:100D9000B801A50194010E941B13C21AD30AE40AE8
:100DA000F50A4090270350902803052C000C660894
:100DB000770880912503909126039C01990F440B9D
:100DC000550B2FA338A749A75AA72BA13CA14DA18A
:100DD0005EA1C301B2010E94E9124B015C01A701AF
:100DE00096016FA178A589A59AA50E94E91295019F
:100DF0008401061B170B280B390BC901B8010E948F
:100E000034116D877E878F87988B80902303909015
:100E10002403092C000CAA08BB08A7019601C501F0
:100E2000B4010E94E9126B017C012F8D38A149A108
:100E30005AA1C301B2010E94E912A7019601261B23
:100E4000370B480B590BCA01B9010E943411698B49
:100E50007A8B8B8B9C8B2F8D38A149A15AA16FA1C6
:100E600078A589A59AA50E94E9126B017C012BA1A6
:100E70003CA14DA15EA1C501B4010E94E9129701F8
:100E80008601061B170B280B390BC901B8010E94FC
:100E900034116D8B7E8B8F8B988FCE010D960E94B7
:100EA0003F036091250370912603072E000C880BE9
:100EB000990B0E9434116B017C012D893E894F8969
:100EC000588D2F8F38A349A35AA36091270370919F
:100ED0002803072E000C880B990B0E9434112B015C
:100EE0003C0189899A89AB89BC898BA39CA3ADA35A
:100EF000BEA32F8D38A149A15AA1C701B6010E94F6
:100F000018124B015C012BA13CA14DA15EA1C301B4
:100F1000B2010E9418129B01AC01C501B4010E94EC
:100F2000A60F69837A838B839C830D851E852F850D
:100F300038890FA318A729A73AA7609123037091B6
:100F40002403072E000C880B990B0E9434114B01CF
:100F50005C012FA138A549A55AA5C301B2010E9481
:100F600018122B013C012F8D38A149A15AA1C501AE
:100F7000B4010E9418129B01AC01C301B2010E948E
:100F8000A60F6D837E838F8398872BA13CA14DA1F3
:100F90005EA1C501B4010E9418124B015C012FA192
:100FA00038A549A55AA5C701B6010E9418129B0190
:100FB000AC01C501B4010E94A60F69877A878B87AF
:100FC0009C87CE0101960E943F03698D7A8D072E82
:100FD000000C880B990B0E9434112B013C016B8D86
:100FE0007C8D072E000C880B990B0E9434114B014D
:100FF0005C016D8D7E8D072E000C880B990B0E9475
:1010000034116B017C0129813A814B815C81C301E0
:10101000B2010E9418126F8F78A389A39AA32D8121
:101020003E814F815885C501B4010E9418129B0171
:10103000AC016F8D78A189A19AA10E94A70F6F8F33
:1010400078A389A39AA329853A854B855C85C70136
:10105000B6010E9418129B01AC016F8D78A189A185
:101060009AA10E94A70F6F8F78A389A39AA32D85B9
:101070003E854F855889C301B2010E9418122B0189
:101080003C0129893A894B895C89C501B4010E94D8
:1010900018129B01AC01C301B2010E94A70F4B01C2
:1010A0005C012D893E894F89588DC701B6010E9488
:1010B00018129B01AC01C501B4010E94A70F2F8D2E
:1010C00038A149A15AA10E94261020E030E044E353
:1010D00053E40E9418122BED3FE049E450E40E94D3
:1010E0008A106B017C0120E030E0A9010E9485108C
:1010F00087FF0AC020E030E044EB53E4C701B601AB
:101100000E94A70F6B017C01C701B601AA960FB61A
:10111000F894DEBF0FBECDBFDF91CF911F910F912D
:10112000FF90EF90DF90CF90BF90AF909F908F9007
:101130007F906F905F904F900895382F20913102EB
:1011400090913002213208F049C080910D02811146
:10115000FCCF42E040930D0230930C023FEF3093FE
:101160000B0210920A0220930902A0E1B2E049EEBC
:1011700051E0FA013E2F341B321718F43D913193A0
:10118000F9CF1092E8012091E801990F922B9093EA
:10119000E8019091E701913061F41092E70190919C
:1011A000E8019093BB009091BC0093FDF8CF95ECC3
:1011B00001C095EE9093BC0090910D029230E1F346
:1011C00090910B029F3F79F080910B02803241F0A9
:1011D00080910B02803331F084E005C081E003C0D0
:1011E00082E001C083E010920F021092310210924F
:1011F0000E02089590910D029111FCCF613208F01A
:1012000060E291E090930D0290930C022FEF2093F7
:101210000B0210920A02260F209309029093E80114
:101220009091E801880F892B8093E8018091E70174
:10123000813061F41092E7018091E8018093BB0056
:101240008091BC0083FDF8CF85EC01C085EE8093D2
:10125000BC0080910D028130E1F380910A02861773
:1012600010F460910A02A9EEB1E027EC31E0F90137
:101270008E2F821B861718F48D918193F9CF1092CF
:10128000C6016093C501862F08951F93CF93DF9306
:10129000162FC3E2D3E09C8D21E020930E029093A1
:1012A000300210920F0210923102682F8FEC92E000
:1012B0000E946802612F8FEC92E00E94680281E038
:1012C0000E949D08888FDF91CF911F9108951F93F1
:1012D000CF93DF93162FC3E2D3E09B8D21E02093C1
:1012E0000E029093300210920F0210923102682F7A
:1012F0008FEC92E00E946802612F8FEC92E00E94D6
:10130000680281E00E949D08888FDF91CF911F9134
:10131000089520913C0330913D032330310511F0B5
:10132000803210F40C9445090C946709CF93C82FB0
:1013300081E080930E02C093300210920F0210924F
:1013400031028FEC92E00E94680281E00E949D08C9
:1013500081110FC061E08C2F0E94FA089091C501A5
:101360008091C601981729F08FEC92E0CF910C94F0
:1013700024028FEF9FEFCF91089590E0FC01E4529B
:10138000FF4F2491FC01E853FF4F3491FC01EC54D2
:10139000FF4FE491EE23B1F1222339F1233091F094
:1013A00038F42130A9F0223001F584B58F7D12C0C8
:1013B000273091F02830A1F02430B9F480918000DA
:1013C0008F7D03C0809180008F77809380000DC057
:1013D00084B58F7784BD09C08091B0008F7703C03A
:1013E0008091B0008F7D8093B000F0E0EE0FFF1F82
:1013F000E655FF4FA591B4918FB7F894EC913E2B31
:101400003C938FBF0895CF93DF93CDB7DEB72E9770
:101410000FB6F894DEBF0FBECDBF789484B582605E
:1014200084BD84B5816084BD85B5826085BD85B588
:10143000816085BD80916E00816080936E00109206
:101440008100809181008260809381008091810081
:101450008160809381008091800081608093800012
:101460008091B10084608093B1008091B000816070
:101470008093B00080917A00846080937A0080919C
:101480007A00826080937A0080917A008E7F8093C8
:101490007A0080917A00806880937A001092C1006F
:1014A000E0914202F091430282E08083E0913E02AB
:1014B000F0913F021082E0914002F091410288E0F9
:1014C000808310924A02E0914602F091470286E042
:1014D0008083E0914402F0914502808180618083A5
:1014E000E0914402F0914502808188608083E09120
:1014F0004402F0914502808180688083E09144023B
:10150000F091450280818F7D80831092C6011092F8
:10151000C50110920F021092310210920D0281E06B
:1015200080930C021092E70182E10E94BD0983E1E1
:101530000E94BD098091B9008E7F8093B90080918F
:10154000B9008D7F8093B90080E28093B80085E474
:101550008093BC006FE070E08DE10E9496098934B1
:10156000910509F453C46FE070E08EE10E94960982
:101570008934910509F44DC460E270E089E10E946C
:101580009609019661F06FE070E08EE10E94960985
:1015900021E030E0CC97D1F080E090E019C060E22B
:1015A00070E088E10E949609019609F44AC06FE054
:1015B00070E08EE10E94960931E020E0CC9709F0BE
:1015C00030E0832F922F20E030E002C082E090E0F4
:1015D00090933D0380933C038230910509F4B5C399
:1015E0008330910509F0D8C32130310509F404C4D2
:1015F0008EE180933F0380933E0388E090E09093D8
:1016000045038093440389E090E0909343038093E3
:1016100042038AE090E090934903809348038BE073
:1016200090E090934703809346038CE090E0909382
:101630004D0380934C038DE090E090934B03809397
:101640004A0380913C0390913D0383309105A9F4B6
:1016500060E081E20E94890967E580E20E948909D1
:1016600064E684E20E94890960E285E20E948909B9
:1016700060E086E20E9489091CC0029731F468E0AC
:1016800083E20E94670967E405C060E083E20E948C
:10169000670967E280E20E9467096CE080E00E94CF
:1016A000450960E281E00E94450960E082E00E9415
:1016B000450986E0E0E0F1E0A5E3B3E001900D929A
:1016C0008A95E1F786E0E6E0F1E0AFE2B3E0019071
:1016D0000D928A95E1F7E4EDF0E02491E0ECF0E082
:1016E0008491882399F090E0880F991FFC01E056BF
:1016F000FF4FA591B491FC01E655FF4F8591949160
:101700008FB7F894EC91E22BEC938FBF8CB580648B
:101710008CBD1092B6018CB580688CBD8CE391E0D5
:101720000E94D70583E491E00E94D7050E94D6016C
:101730000091C1011091C2012091C3013091C401F7
:101740006B017C01C01AD10AE20AF30A97018601F3
:10175000043611052105310508F4F4C26093C10176
:101760007093C2018093C3019093C4010FED12E006
:1017700030EEE32E32E0F32E47EBC42E41E0D42EC0
:10178000D8011696ED91FC91179790818C91892B39
:1017900080831296ED91FC91139790818C918095A6
:1017A0008923808384E090E00197F1F71296ED9110
:1017B000FC91139790818C91892B808380E190E03C
:1017C0000197F1F71296ED91FC91139790818C910E
:1017D0008095892380831696ED91FC9117979081CF
:1017E0008C918095892380831496ED91FC911597B7
:1017F0009081F7018081892309F074C00E94B101B2
:10180000D80118962D913C9119974901A12CB12C22
:10181000B8EA8B0EB6E19B1EA11CB11CDC01CB010A
:10182000880D991DAA1DBB1DF80182879387A48787
:10183000B587D8011496ED91FC9115979081F70129
:101840008081892379F40E94B101D8011A968D9084
:101850009D90AD90BC901D9786169706A806B90678
:1018600040F740C00E94B101D80118962D913C91DB
:101870001997DC01CB01820F931FA11DB11DF80147
:1018800082879387A487B587D8011496ED91FC9140
:1018900015979081F7018081892379F00E94B10129
:1018A000D8011A968D909D90AD90BC901D9786168C
:1018B0009706A806B90640F715C00E94B101D801E5
:1018C00018962D913C911997A901455051091A96E6
:1018D0002D913C911B97FA01E21BF30BAF01460FD0
:1018E000571F02C040E050E0BA0180E090E029E3D9
:1018F00030E040E050E00E94F912D6018D919C91B9
:1019000011978217930711F02D933C930E5E1F4F92
:10191000B2E1EB0EF11CE2E0CE0ED11CF3E0073297
:101920001F0709F02DCF80913E0391E090930E02A6
:101930008093300210920F021092310268EA8FEC0D
:1019400092E00E94680281E00E949D0880933B0320
:1019500066E080913E030E94FA080E94D6018B0146
:101960008091C50190E02091C601821B91090697E4
:10197000ACF480914E0390914F03892B89F30E9420
:10198000D601601B710B80914E0390914F03861717
:10199000970730F781E08093500335C08FEC92E0D9
:1019A0000E942402E82E8FEC92E00E942402D82E9E
:1019B0008FEC92E00E942402082F8FEC92E00E94AC
:1019C0002402F82E8FEC92E00E942402182F8FEC54
:1019D00092E00E942402DE861D862D853E852E29FA
:1019E00030932403209323033F2C212C9101202B9F
:1019F0003093260320932503982F8827812B9093DB
:101A000028038093270380913F0391E090930E0277
:101A10008093300210920F021092310280913C03A9
:101A200090913D03039731F4609144037091450315
:101A3000606804C060914203709143038FEC92E0B0
:101A40000E94680281E00E949D0880933B0366E04B
:101A500080913F030E94FA080E94D6018B01809179
:101A6000C50190E02091C601821B91090697ACF454
:101A700080914E0390914F03892B89F30E94D601E8
:101A8000601B710B80914E0390914F03861797074F
:101A900030F781E08093500374C080913C039091B3
:101AA0003D030397F9F48FEC92E00E942402182F73
:101AB0008FEC92E00E942402F82E8FEC92E00E94BC
:101AC0002402C82E8FEC92E00E942402082F8FEC93
:101AD00092E00E942402E82E8FEC92E00E94240201
:101AE000D82E39C08FEC92E00E942402F82E8FECA1
:101AF00092E00E942402182F80913C0390913D03B4
:101B0000892BA9F48FEC92E00E942402082F8FEC1D
:101B100092E00E942402C82E8FEC92E00E942402E0
:101B2000D82E8FEC92E00E942402E82E14C08FEC95
:101B300092E00E942402D82E8FEC92E00E942402B0
:101B4000E82E8FEC92E00E942402082F8FEC92E0A6
:101B50000E942402C82E812F90E09F2990932A038F
:101B6000809329032C2D30E0302B30932C032093CD
:101B70002B032E2D30E0C9019D2990932E038093D5
:101B80002D0380913C0390913D03039769F441E05C
:101B900049831A821C821B821E821D8250E060E0F3
:101BA0007C8180E09E810CC018861F826FEF698760
:101BB0006A871C861B8640E058857FEF80E09C8505
:101BC0000E942A066B017C019B01AC010E94CF128E
:101BD000882319F086E491E01AC026013701E894C1
:101BE00077F82FEF3FEF4FE75FE7C301B2010E94A5
:101BF000CF1281110FC02FEF3FEF4FE75FE7C30117
:101C0000B2010E94851018162CF48AE491E00E941B
:101C1000D70582C02FEF3FEF4FE75FE4C701B60162
:101C20000E940B1218161CF48EE491E0F0CF2FEFF7
:101C30003FEF4FE75FECC701B6010E94851087FDBB
:101C4000F3CF20E030E0A901C701B6010E94851062
:101C500087FF0FC0E0913202F09133020190F081D2
:101C6000E02D6DE282E392E00995C701B60190583C
:101C700002C0C701B6012AE037ED43EA5BE30E94E8
:101C8000A70F4B015C010E9403112B013C010E9434
:101C900032119B01AC01C501B4010E94A60F4B019A
:101CA0005C014AE0C301B2010E94E905E091320201
:101CB000F09133020190F081E02D6EE282E392E038
:101CC000099520E030E040E251E4C501B4010E94F2
:101CD00018122B013C010E9403114B01A12CB12CC5
:101CE0004AE0C501B4010E94E905C501B4010E94A2
:101CF00032119B01AC01C301B2010E94A60F20E08A
:101D000030E040E251E40E9418120E94031180E08A
:101D100090E04AE00E94E90583E491E00E94D70543
:101D200020E030E044EB53E4C701B6010E94851087
:101D3000181644F0C701B6010E94FC107093C00150
:101D40006093BF010E94A701F1CC89E180933E031B
:101D50008EE180933F0383E090E090934303809370
:101D6000420384E090E0909345038093440387E02E
:101D700090E0909347038093460388E090E090932F
:101D800049038093480385E090E090934B03809350
:101D90004A0386E090E02BC0019781F121303105A4
:101DA00099F188E180933E038EE180933F0383E0C5
:101DB00090E0909343038093420384E090E09093FB
:101DC00045038093440385E090E09093470380931C
:101DD000460386E090E0909349038093480387E0B0
:101DE00090E090934B0380934A0388E090E09093B7
:101DF0004D0380934C0325CC8DE1FBCB2130310585
:101E000009F4A3CF88E1A2CF89E1CCCF21E030E073
:101E100002C020E030E083E090E0DACBE2E3F2E0E1
:101E20001382128288EE93E0A0E0B0E08483958371
:101E3000A683B7832CE131E03183208325EC30E0A9
:101E40003587248724EC30E03787268720EC30E084
:101E5000318B208B21EC30E0338B228B22EC30E075
:101E6000358B248B26EC30E0378B268B118E128E2F
:101E7000138E148EEFECF2E013821282848395832A
:101E8000A683B7838EE291E09183808386E0ECE0C5
:101E9000F1E0A5E3B3E001900D928A95E1F786E0C9
:101EA000E2E1F1E0AFE2B3E001900D928A95E1F753
:101EB000E3E2F3E084E090E0928F818F14A613A612
:101EC00015A628EC30E045E062E087E893E00E9448
:101ED000210528EC30E046E067E085E793E00E94CA
:101EE000210528EC30E043E068E083E693E00E94BF
:101EF000210528EC30E044E069E081E593E00E94B0
:101F0000210582E1E7E8F3E0ABEDB2E001900D924C
:101F10008A95E1F782E1E5E7F3E0ADEEB2E001900A
:101F20000D928A95E1F782E1E3E6F3E0AFEFB2E0EC
:101F300001900D928A95E1F782E1E1E5F3E0A1E1FC
:101F4000B3E001900D928A95E1F708955058BB27B0
:101F5000AA270E94BE0F0C94D1110E94C31138F021
:101F60000E94CA1120F039F49F3F19F426F40C9412
:101F700099110EF4E095E7FB0C949311E92F0E9460
:101F8000E21158F3BA17620773078407950720F028
:101F900079F4A6F50C9404120EF4E0950B2EBA2FEA
:101FA000A02D0B01B90190010C01CA01A00111245F
:101FB000FF27591B99F0593F50F4503E68F11A160B
:101FC000F040A22F232F342F4427585FF3CF46959C
:101FD00037952795A795F0405395C9F77EF41F16BE
:101FE000BA0B620B730B840BBAF09150A1F0FF0F88
:101FF000BB1F661F771F881FC2F70EC0BA0F621F74
:10200000731F841F48F4879577956795B795F79563
:102010009E3F08F0B0CF9395880F08F09927EE0FF8
:102020009795879508950E94C31160F080E891E02C
:1020300009F49EEF0E94CA1128F040E851E071F4C3
:102040005EEF0CC00C9499110C940412E92FE07807
:102050000E94E21140F3092E052AB1F32617370733
:102060004807590738F00E2E07F8E02569F0E025FB
:10207000E0640AC0EF6307F8009407FADB01B901D6
:102080009D01DC01CA01AD01EF930E94A1100E94E5
:10209000D1110E9456105F91552339F02BED3FE08E
:1020A00049E450FD49EC0C94A70F0895DF93DD2718
:1020B000B92FBF7740E85FE31616170648075B079E
:1020C00018F4D92F0E9410129F938F937F936F93D0
:1020D0000E94CB12E8E6F0E00E949C110E94D11110
:1020E0002F913F914F915F910E942B12DD2351F070
:1020F0009058A2EA2AED3FE049EC5FE3D0785D27F3
:102100000E94BE0FDF910C94D1110E946F1108F450
:1021100081E008950E949E100C94D1110E94CA1172
:1021200058F00E94C31140F029F45F3F29F00C944D
:10213000931151110C9405120C9499110E94E21103
:1021400068F39923B1F3552391F3951B550BBB27E6
:10215000AA2762177307840738F09F5F5F4F220F2B
:10216000331F441FAA1FA9F335D00E2E3AF0E0E822
:1021700032D091505040E695001CCAF72BD0FE2F6C
:1021800029D0660F771F881FBB1F26173707480700
:10219000AB07B0E809F0BB0B802DBF01FF279358B8
:1021A0005F4F3AF09E3F510578F00C9493110C94D8
:1021B00005125F3FE4F3983ED4F3869577956795D3
:1021C000B795F7959F5FC9F7880F911D96958795ED
:1021D00097F90895E1E0660F771F881FBB1F62170C
:1021E00073078407BA0720F0621B730B840BBA0BCA
:1021F000EE1F88F7E09508950E9403116894B111CD
:102200000C94051208950E94EA1188F09F5798F0E7
:10221000B92F9927B751B0F0E1F0660F771F881FEB
:10222000991F1AF0BA95C9F714C0B13091F00E9405
:102230000412B1E008950C940412672F782F8827B8
:10224000B85F39F0B93FCCF3869577956795B3952C
:10225000D9F73EF490958095709561957F4F8F4F9B
:102260009F4F0895E89409C097FB3EF490958095A0
:10227000709561957F4F8F4F9F4F9923A9F0F92F4C
:1022800096E9BB279395F695879577956795B795CA
:10229000F111F8CFFAF4BB0F11F460FF1BC06F5FB0
:1022A0007F4F8F4F9F4F16C0882311F096E911C0C2
:1022B000772321F09EE8872F762F05C0662371F0E3
:1022C00096E8862F70E060E02AF09A95660F771FF7
:1022D000881FDAF7880F9695879597F90895990FD3
:1022E0000008550FAA0BE0E8FEEF16161706E807E0
:1022F000F907C0F012161306E407F50798F0621B01
:10230000730B840B950B39F40A2661F0232B242BD5
:10231000252B21F408950A2609F4A140A6958FEFF4
:10232000811D811D089597F99F6780E870E060E046
:1023300008959FEF80EC0895DF93CF931F930F9341
:10234000FF92EF92DF927B018C01689406C0DA2E37
:10235000EF010E942B12FE01E894A5912591359181
:1023600045915591A6F3EF010E94BE0FFE01970122
:10237000A801DA9469F7DF90EF90FF900F911F9119
:10238000CF91DF91089500240A94161617061806B7
:102390000906089500240A94121613061406050669
:1023A0000895092E0394000C11F4882352F0BB0FFA
:1023B00040F4BF2B11F460FF04C06F5F7F4F8F4F5D
:1023C0009F4F089557FD9058440F551F59F05F3F98
:1023D00071F04795880F97FB991F61F09F3F79F047
:1023E00087950895121613061406551FF2CF4695C9
:1023F000F1DF08C0161617061806991FF1CF86954B
:102400007105610508940895E894BB27662777272E
:10241000CB0197F908950E946F1108F48FEF08958A
:102420009B01AC0160E070E080E89FE30C948A10AF
:102430000E942B120C94D1110E94C31138F00E94FB
:10244000CA1120F0952311F00C9493110C9499115A
:1024500011240C9405120E94E21170F3959FC1F3B0
:10246000950F50E0551F629FF001729FBB27F00D42
:10247000B11D639FAA27F00DB11DAA1F649F662797
:10248000B00DA11D661F829F2227B00DA11D621FE6
:10249000739FB00DA11D621F839FA00D611D221FA0
:1024A000749F3327A00D611D231F849F600D211D84
:1024B000822F762F6A2F11249F5750409AF0F1F007
:1024C00088234AF0EE0FFF1FBB1F661F771F881F70
:1024D00091505040A9F79E3F510580F00C94931104
:1024E0000C9405125F3FE4F3983ED4F386957795FC
:1024F0006795B795F795E7959F5FC1F7FE2B880F16
:10250000911D9695879597F9089519F416F40C94F2
:1025100099110C94D4120E94EA11B8F39923C9F3CB
:10252000B6F39F57550B87FF0E94E2120024A0E6E6
:1025300040EA900180585695979528F4805C660F84
:10254000771F881F20F026173707480730F4621BD3
:10255000730B840B202931294A2BA69517940794D5
:10256000202531254A2758F7660F771F881F20F04E
:1025700026173707480730F4620B730B840B200DC6
:10258000311D411DA09581F7B901842F9158880F05
:102590009695879508959B01AC010C9418120E94A2
:1025A0006F11880B990B08959F3F31F0915020F4E3
:1025B000879577956795B795880F911D969587951F
:1025C00097F9089591505040660F771F881FD2F7F2
:1025D0000895DB018F939F930E943A13BF91AF91AF
:1025E000A29F800D911DA39F900DB29F900D11246D
:1025F0000895A1E21A2EAA1BBB1BFD010DC0AA1F44
:10260000BB1FEE1FFF1FA217B307E407F50720F05B
:10261000A21BB30BE40BF50B661F771F881F991FD6
:102620001A9469F760957095809590959B01AC011F
:10263000BD01CF010895052E97FB1EF400940E9462
:10264000321357FD07D00E94F91207FC03D04EF455
:102650000C94321350954095309521953F4F4F4F34
:102660005F4F089590958095709561957F4F8F4F3E
:102670009F4F08950E944B13A59F900DB49F900DFE
:10268000A49F800D911D11240895EE0FFF1F05904A
:10269000F491E02D0994A29FB001B39FC001A39FC4
:1026A000700D811D1124911DB29F700D811D11248B
:1026B000911D089581E090E0F8940C945F13F894D4
:0226C000FFCF4A
:1026C2008DFD4AFDE8FDD80164018D000180018085
:1026D2000180FF7FFF7FFF7F000000003E01AB0013
:1026E200D60085010701E500F9000000000068023C
:1026F200380298021402A300240215025265616492
:102702007921000D0A006E616E00696E66006F76B7
:0C2712006600202020206572723A200032
:107800000C94343C0C94513C0C94513C0C94513CE1
:107810000C94513C0C94513C0C94513C0C94513CB4
:107820000C94513C0C94513C0C94513C0C94513CA4
:107830000C94513C0C94513C0C94513C0C94513C94
:107840000C94513C0C94513C0C94513C0C94513C84
:107850000C94513C0C94513C0C94513C0C94513C74
:107860000C94513C0C94513C11241FBECFEFD8E036
:10787000DEBFCDBF11E0A0E0B1E0EAE8FFE702C063
:1078800005900D92A230B107D9F712E0A2E0B1E065
:1078900001C01D92AD30B107E1F70E942D3D0C945F
:1078A000C33F0C94003C982F95959595959595958B
:1078B000905D8F708A307CF0282F295A8091C0000B
:1078C00085FFFCCF9093C6008091C00085FFFCCF60
:1078D0002093C6000895282F205DF0CF982F809127
:1078E000C00085FFFCCF9093C6000895EF92FF92F1
:1078F0000F931F93EE24FF2487018091C00087FD22
:1079000017C00894E11CF11C011D111D81E2E8164D
:1079100081EAF80687E0080780E0180770F3E09135
:107920000401F091050109958091C00087FFE9CF1E
:107930008091C6001F910F91FF90EF9008950E94D3
:10794000763C982F8091C00085FFFCCF9093C600B5
:1079500091362CF490330CF09053892F089597555D
:10796000892F08951F930E949F3C182F0E949F3CCF
:107970001295107F810F1F9108951F93182F882350
:1079800021F00E94763C1150E1F71F9108951F935A
:10799000182F0E94763C803249F0809103018F5F5E
:1079A000809303018530C1F01F9108958091C0003C
:1079B00085FFFCCF84E18093C6008091C00085FFE5
:1079C000FCCF1093C6008091C00085FFFCCF80E102
:1079D0008093C6001F910895E0910401F091050184
:1079E00009951F9108950E94763C803241F0809164
:1079F00003018F5F80930301853081F008958091AA
:107A0000C00085FFFCCF84E18093C6008091C00058
:107A100085FFFCCF80E18093C6000895E0910401CA
:107A2000F09105010995089548EC50E08823A1F0F4
:107A30002D9A28EE33E0FA013197F1F721503040CA
:107A4000D1F72D9828EE33E0FA013197F1F7215064
:107A50003040D1F7815061F708953F924F925F9285
:107A60006F927F928F929F92AF92BF92CF92DF924E
:107A7000EF92FF920F931F93CF93DF93000082E06A
:107A80008093C00080E18093C4001092C50088E11B
:107A90008093C10086E08093C2005098589A259A3E
:107AA00081E00E94143D24E1F22E9EE1E92E85E959
:107AB000D82E0FE0C02E10E1B12EAA24A394B1E479
:107AC0009B2EA6E58A2EF2E57F2EE0E26E2E79E46B
:107AD000572E63E5462E50E5352E0E94763C8033C6
:107AE000B1F18133B9F1803409F46FC0813409F404
:107AF00076C0823409F485C0853409F488C08035A5
:107B000031F1823521F1813511F1853509F485C0D6
:107B1000863509F48DC0843609F496C0843709F49B
:107B200003C1853709F472C1863709F466C08091B4
:107B300003018F5F80930301853079F6E0910401A2
:107B4000F091050109950E94763C803351F60E9420
:107B5000F33CC3CF0E94763C803249F78091C0004D
:107B600085FFFCCFF092C6008091C00085FFFCCF5E
:107B70009092C6008091C00085FFFCCF8092C60025
:107B80008091C00085FFFCCF7092C6008091C0003C
:107B900085FFFCCF6092C6008091C00085FFFCCFBE
:107BA0005092C6008091C00085FFFCCF4092C60075
:107BB0008091C00085FFFCCF3092C6008091C0004C
:107BC00085FFFCCFB092C60088CF0E94763C8638F5
:107BD00008F4BDCF0E94763C0E94F33C7ECF0E9409
:107BE000763C803809F49CC0813809F40BC1823896
:107BF00009F430C1883909F48FC080E00E94C73C85
:107C00006CCF84E10E94BD3C0E94F33C66CF85E0CE
:107C10000E94BD3C0E94F33C60CF0E94763C809362
:107C200006010E94763C809307010E94F33C55CFE9
:107C30000E94763C803309F411C183E00E94BD3C70
:107C400080E00E94C73C49CF0E94763C80930902A5
:107C50000E94763C8093080280910C028E7F809374
:107C60000C020E94763C853409F409C18091080217
:107C700090910902892B89F000E010E00E94763C87
:107C8000F801E85FFE4F80830F5F1F4F809108026D
:107C9000909109020817190788F30E94763C8032F8
:107CA00009F045CF80910C0280FFF5C0609106017C
:107CB00070910701660F771F7093070160930601AB
:107CC000A0910802B09109021097C9F0E8E0F1E034
:107CD0009B01AD014E0F5F1FF999FECF32BD21BD53
:107CE000819180BDFA9AF99A2F5F3F4FE417F5070B
:107CF00099F76A0F7B1F70930701609306018091CB
:107D0000C00085FFFCCFF092C6008091C00085FFC7
:107D1000FCCFB092C600E1CE83E00E94C73CDDCE2E
:107D200082E00E94C73CD9CE0E94763C8093090233
:107D30000E94763C80930802809106019091070191
:107D4000880F991F90930701809306010E94763C4B
:107D5000853409F49AC080910C028E7F80930C02C6
:107D60000E94763C803209F0B8CE8091C00085FF39
:107D7000FCCFF092C600A0910802B09109021097C2
:107D8000C1F180910C02082F0170182F1695117007
:107D9000E0910601F0910701AF014F5F5F4FBA011B
:107DA00020E030E00023B1F4112339F49491809164
:107DB000C00085FFFCCF9093C6002F5F3F4FCB01E3
:107DC0000196FA012A173B0780F4BC014F5F5F4F11
:107DD000002351F3F999FECFF2BDE1BDF89A90B5B9
:107DE0008091C00085FFFCCFE6CF709307016093C0
:107DF00006018091C00085FDE5CE8091C00085FF21
:107E0000F8CFE0CE81E00E94C73C67CE0E94763C6E
:107E1000803209F08CCE8091C00085FFFCCFF092BB
:107E2000C6008091C00085FFFCCFE092C600809123
:107E3000C00085FFFCCFD092C6008091C00085FFB6
:107E4000FCCFC092C6008091C00085FFFCCFB092ED
:107E5000C60043CE80E10E94C73C3FCE0E94763CE4
:107E60000E94763C182F0E94763C112309F483C0AF
:107E7000113009F484C08FE00E94C73C2ECE80915F
:107E80000C02816080930C02F1CE80910C02816023
:107E900080930C0265CF809107018823880F880B9F
:107EA0008A2180930B028091060190910701880F2F
:107EB000991F90930701809306018091080280FF2B
:107EC00009C08091080290910902019690930902DD
:107ED00080930802F894F999FECF1127E0910601EA
:107EE000F0910701C8E0D1E0809108029091090269
:107EF000103091F40091570001700130D9F303E084
:107F000000935700E8950091570001700130D9F3B4
:107F100001E100935700E8950990199000915700EE
:107F200001700130D9F301E000935700E8951395F3
:107F3000103498F011270091570001700130D9F3E7
:107F400005E000935700E89500915700017001305B
:107F5000D9F301E100935700E8953296029709F0B2
:107F6000C7CF103011F00296E5CF11248091C000E8
:107F700085FFC5CEC8CE8EE10E94C73CAECD85E957
:0A7F80000E94C73CAACDF894FFCF81
:027F8A00800075
:040000030000780081
:00000001FF
