:100000000C9479000C94A1000C94A1000C94A10014
:100010000C94A1000C94A1000C94A1000C94FA047F
:100020000C94A1000C94A1000C94A1000C94A100CC
:100030000C94A1000C94A1000C94A1000C94A100BC
:100040000C94F5020C9473050C94C3020C949D025D
:100050000C94A1000C94A1000C94A1000C94A1009C
:100060000C94CC030C94A100084AD73B3BCE016E04
:1000700084BCBFFDC12F3D6C74319ABD56833DDAFF
:100080003D00C77F11BED9E4BB4C3E916BAAAABE0E
:10009000000000803F00000000002300260029002F
:1000A00000000000240027002A00000000002500B6
:1000B00028002B00040404040404040402020202C5
:1000C000020203030303030301020408102040801B
:1000D000010204081020010204081020000000089A
:1000E00000020100000304070000000000000000FF
:1000F000600F11241FBECFEFD8E0DEBFCDBF11E0EF
:10010000A0E0B1E0E6E6F7E202C005900D92A2366B
:10011000B107D9F723E0A2E6B1E001C01D92AF39E3
:10012000B207E1F710E0C9E7D0E004C02197FE0173
:100130000E949713C837D107C9F70E943C0A0C9454
:10014000B1130C9400008091CB0190E02091CC0180
:10015000821B91090895CF92DF92EF92FF920F9345
:100160001F93CF93DF936C017A018B01C0E0D0E045
:10017000CE15DF0589F0D8016D918D01D601ED9185
:10018000FC910190F081E02DC6010995892B11F4B5
:100190007E0102C02196ECCFC701DF91CF911F9164
:1001A0000F91FF90EF90DF90CF900895FC01538D59
:1001B000448D252F30E0842F90E0821B930B541741
:1001C00010F0CF96089501970895FC01918D828DCE
:1001D000981761F0828DDF01A80FB11D5D968C919B
:1001E000928D9F5F9F73928F90E008958FEF9FEFA6
:1001F0000895FC01918D828D981731F0828DE80F62
:10020000F11D858D90E008958FEF9FEF0895FC011B
:10021000918D228D892F90E0805C9F4F821B9109E8
:100220008F739927089588E392E00E94070121E0E7
:10023000892B09F420E0822F0895FC01848DDF01D1
:10024000A80FB11DA35ABF4F2C91848D90E0019649
:100250008F739927848FA689B7892C93A089B18938
:100260008C9180648C93938D848D981306C0028842
:10027000F389E02D80818F7D80830895EF92FF9236
:100280000F931F93CF93DF93EC0181E0888F9B8DB9
:100290008C8D981305C0E889F989808185FD24C07B
:1002A000F62E0B8D10E00F5F1F4F0F731127E02EFE
:1002B0008C8DE8120CC00FB607FCFACFE889F989DB
:1002C000808185FFF5CFCE010E941D01F1CF8B8D7E
:1002D000FE01E80FF11DE35AFF4FF0820B8FEA8910
:1002E000FB898081806207C0EE89FF896083E8898D
:1002F000F98980818064808381E090E0DF91CF91F3
:100300001F910F91FF90EF900895CF93DF93EC0131
:10031000888D8823C9F0EA89FB89808185FD05C025
:10032000A889B9898C9186FD0FC00FB607FCF5CF5F
:10033000808185FFF2CFA889B9898C9185FFEDCFA7
:10034000CE010E941D01E7CFDF91CF91089580E09B
:1003500090E0892B29F00E94130181110C94000078
:1003600008953FB7F8948091B8019091B901A09198
:10037000BA01B091BB0126B5A89B05C02F3F19F06B
:100380000196A11DB11D3FBFBA2FA92F982F882715
:10039000820F911DA11DB11DBC01CD0143E0660F6F
:1003A000771F881F991F4A95D1F708952FB7F894A2
:1003B0006091B4017091B5018091B6019091B7013F
:1003C0002FBF089585ED8093BC008091BC0084FD13
:1003D000FCCF10921302089540918E01262F30E039
:1003E000240F311D21323105DCF420911302243019
:1003F000C9F4FC0180E090E0861758F430918E013A
:100400002191DC01A459BE4FA30FB11D2C9301967D
:10041000F3CF80918E01680F60938E0180E0089584
:1004200081E0089582E008950895E091CC018091E3
:10043000CB01E81730F4F0E0E353FE4F808190E009
:1004400008958FEF9FEF08959091CC018091CB019B
:10045000981750F4E92FF0E0E353FE4F208130E08D
:100460009F5F9093CC0102C02FEF3FEFC901089529
:10047000CF92DF92EF92FF920F931F93CF93DF9370
:100480007C01262F972F8A0180911402882391F0F6
:10049000C62FD72F6E01C40ED51ECC15DD0571F009
:1004A0006991D701ED91FC910190F081E02DC70198
:1004B0000995F3CF642F822F0E94EC01C801DF91D0
:1004C000CF911F910F91FF90EF90DF90CF90089503
:1004D000CF93DF931F92CDB7DEB7698320911402CB
:1004E0002223D1F020913702203240F021E030E089
:1004F000FC013383228380E090E015C080911502D7
:10050000E82FF0E0EA5EFD4F998190838F5F809342
:1005100015028093370205C061E0CE0101960E946A
:10052000EC0181E090E00F90DF91CF910895089564
:1005300080E090E008950E94AC131F920F920FB6D6
:100540000F9211242F933F934F935F936F937F9359
:100550008F939F93AF93BF93EF93FF9388E392E0C2
:100560000E941D01FF91EF91BF91AF919F918F91DB
:100570007F916F915F914F913F912F910F900FBE9F
:100580000F901F9018951F920F920FB60F92112483
:100590002F938F939F93EF93FF93E0914802F091F5
:1005A00049028081E0914E02F0914F0282FD12C01B
:1005B0009081809151028F5F8F7320915202821738
:1005C00051F0E0915102F0E0E85CFD4F958F80938F
:1005D000510201C08081FF91EF919F918F912F91E6
:1005E0000F900FBE0F901F9018951F920F920FB68D
:1005F0000F9211242F933F938F939F93AF93BF93A9
:100600008091B4019091B501A091B601B091B7016C
:100610003091B30126E0230F2D3720F40296A11D5F
:10062000B11D05C029E8230F0396A11DB11D20931C
:10063000B3018093B4019093B501A093B601B09338
:10064000B7018091B8019091B901A091BA01B09120
:10065000BB010196A11DB11D8093B8019093B90112
:10066000A093BA01B093BB01BF91AF919F918F91BD
:100670003F912F910F900FBE0F901F9018954F92A2
:100680005F926F927F928F929F92AF92BF92CF9222
:10069000DF92EF92FF920F931F93CF93DF9300D0DF
:1006A00000D0CDB7DEB78C01DC014D905D906D9030
:1006B0007C90139714968D909D90AD90BC90179759
:1006C00018968D919D910D90BC91A02D89839A8350
:1006D000AB83BC83A3019201C301B2010E946A12E1
:1006E0006B017C01A5019401C501B4010E946A124D
:1006F0009B01AC01C701B6010E94F90F6B017C019F
:1007000029813A814B815C81CA01B9010E946A1238
:100710009B01AC01C701B6010E94F90F0E94DD12D6
:100720006B017C019B01AC01C301B2010E94DC1092
:10073000F8016083718382839383A7019601C501C9
:10074000B4010E94DC10D80114966D937D938D93B3
:100750009C931797A701960169817A818B819C816F
:100760000E94DC10F80160877187828793870F9061
:100770000F900F900F90DF91CF911F910F91FF90ED
:10078000EF90DF90CF90BF90AF909F908F907F9031
:100790006F905F904F9008951F920F920FB60F9237
:1007A00011242F933F934F935F936F937F938F9376
:1007B0009F93AF93BF93EF93FF938091B900887F8E
:1007C000803609F49CC068F5883209F45BC090F467
:1007D000803109F454C038F4882309F4F6C0883015
:1007E00009F44DC0F6C0883109F44CC0803209F4D8
:1007F0005DC0EFC0803409F468C048F4803309F468
:1008000055C0883309F0E5C080931102D8C0803507
:1008100009F44FC0883509F45DC0883409F0D9C0A7
:10082000D6C0883909F4C7C0A8F4883709F467C06E
:1008300038F4883609F463C0803709F460C0C9C051
:10084000883809F4B8C0803909F45FC0803809F0ED
:10085000C0C05BC0803B09F486C038F4803A09F41C
:1008600066C0883A09F47FC0B4C0803C09F4A7C0D0
:10087000883C09F4A4C0883B09F48AC0AAC08091CE
:10088000EE0110C09091100280910F02981770F540
:10089000E091100281E08E0F80931002F0E0E151B0
:1008A000FE4F80818093BB0085EC86C0809311024F
:1008B0008EC0E091100281E08E0F80931002809133
:1008C000BB00F0E0E151FE4F8083909110028091D7
:1008D0000F026EC0E091100281E08E0F8093100233
:1008E0008091BB00F0E0E151FE4F808380911202C5
:1008F00081116DC081E08093ED0184EA61C083E0E5
:10090000809313021092B201CFCF8091B201803256
:1009100008F051C0E091B20181E08E0F8093B201E6
:100920008091BB00F0E0EE56FE4F8083BDCF85EC9A
:100930008093BC00109213028091B201803230F497
:10094000E091B201F0E0EE56FE4F10826091B201EC
:1009500070E0E0919001F091910182E991E00995B8
:100960001092B20136C084E08093130210928F017E
:1009700010928E01E0918C01F0918D01099580918A
:100980008E01811105C081E080938E0110926C016F
:10099000E0918F0181E08E0F80938F01F0E0E459A8
:1009A000FE4F80818093BB0090918F0180918E01DA
:1009B000981708F479CF85E88093BC000AC085ECCD
:1009C0008093BC001092130204C0109211020E9486
:1009D000E201FF91EF91BF91AF919F918F917F9134
:1009E0006F915F914F913F912F910F900FBE0F909C
:1009F0001F9018951F920F920FB60F9211242F93EC
:100A00003F934F935F936F937F938F939F93AF9396
:100A1000BF93EF93FF93E0916A01F0916B01099509
:100A2000FF91EF91BF91AF919F918F917F916F91C6
:100A30005F914F913F912F910F900FBE0F901F909C
:100A40001895DC0170E0FB01E853FF4FE491149628
:100A5000EC93149750E0FA01E853FF4FE491159698
:100A6000EC9315976C547F4FFB018491E82FF0E0D5
:100A7000EE0FFF1FE655FF4F8591949117969C93BB
:100A80008E931697FA01EC54FF4F449150E0440FB7
:100A9000551F4A565F4FFA018591949119969C9380
:100AA0008E931897FB016491E62FF0E0EE0FFF1F85
:100AB000E056FF4F859194911B969C938E931A97C5
:100AC0002F5F3F4F49E3429FC001439F900D112488
:100AD0008E38FFE69F0710F08DE89FE61D969C93E9
:100AE0008E931C9708951F920F920FB60F921124A8
:100AF0002F933F934F935F936F937F938F939F9326
:100B0000AF93BF93EF93FF938EB5809369018EB53A
:100B10008430A9F040F4813091F088F0823079F08F
:100B2000833069F028C0883C89F018F4853039F0AA
:100B300022C0893CA9F08F3FF1F41EBC27C08EB5BE
:100B400090E0909368018093670120C0E091670175
:100B5000F0916801EE0FFF1FE354FE4F818109C041
:100B6000E0916701F0916801EE0FFF1FE354FE4F23
:100B700080818EBD0BC087E591E00E94D7056EB5E0
:100B800070E080E090E04AE00E94F405FF91EF9170
:100B9000BF91AF919F918F917F916F915F914F9195
:100BA0003F912F910F900FBE0F901F9018950097B7
:100BB00069F0FC0101900020E9F73197AF01481B73
:100BC000590BBC0188E392E00C94AB0080E090E00C
:100BD0000895E0913802F09139020190F081E02D02
:100BE000682F88E392E009948F929F92AF92BF9210
:100BF0000F931F93CF93DF93CDB7DEB7A1970FB6B7
:100C0000F894DEBF0FBECDBF19A2423008F44AE00F
:100C10008E010F5D1F4F842E912CA12CB12CA501AC
:100C200094010E944B13E62FB901CA01015011092A
:100C3000EA3014F4E05D01C0E95CD801EC93232BA9
:100C4000242B252B61F7C8010E94D705A1960FB66A
:100C5000F894DEBF0FBECDBFDF91CF911F910F91F2
:100C6000BF90AF909F908F9008954F925F926F9238
:100C70007F928F929F92AF92BF92CF92DF92EF922C
:100C8000FF920F931F93CF93DF93CDB7DEB7AA9751
:100C90000FB6F894DEBF0FBECDBF498F5A8F6B8F52
:100CA0007C8F8D8F9E8FC0902F03D09030030D2CA2
:100CB000000CEE08FF0860913B0370913C03AB0110
:100CC000770F660B770B8091350390913603092ED1
:100CD000000CAA0BBB0B8A019B01080F191F2A1FCE
:100CE0003B1FC901B80122E0822E912CA12CB12C0E
:100CF000A50194010E946D13D701C601821B930BBD
:100D0000A40BB50B8F8F98A3A9A3BAA3C0903103EE
:100D1000D09032030D2C000CEE08FF0860913D03CB
:100D200070913E03AB01770F660B770B8091370311
:100D300090913803092E000CAA0BBB0B8A019B0172
:100D4000080F191F2A1F3B1FC901B801A5019401F3
:100D50000E946D13D701C601821B930BA40BB50B28
:100D60008BA39CA3ADA3BEA3C0903303D090340348
:100D70000D2C000CEE08FF0860913F0370914003BA
:100D8000AB01770F660B770B8091390390913A0393
:100D9000092E000CAA0BBB0B8A019B01080F191F1F
:100DA0002A1F3B1FC901B801A50194010E946D13C0
:100DB000C21AD30AE40AF50A40902D0350902E037C
:100DC000052C000C6608770880912B0390912C036A
:100DD0009C01990F440B550B2FA338A749A75AA77D
:100DE0002BA13CA14DA15EA1C301B2010E943B1306
:100DF0004B015C01A70196016FA178A589A59AA571
:100E00000E943B1395018401061B170B280B390B1D
:100E1000C901B8010E9486116D877E878F87988BE4
:100E20008090290390902A03092C000CAA08BB0883
:100E3000A7019601C501B4010E943B136B017C011F
:100E40002F8D38A149A15AA1C301B2010E943B13C1
:100E5000A7019601261B370B480B590BCA01B90194
:100E60000E948611698B7A8B8B8B9C8B2F8D38A17E
:100E700049A15AA16FA178A589A59AA50E943B1303
:100E80006B017C012BA13CA14DA15EA1C501B40168
:100E90000E943B1397018601061B170B280B390B89
:100EA000C901B8010E9486116D8B7E8B8F8B988F44
:100EB000CE010D960E943F0360912B0370912C038D
:100EC000072E000C880B990B0E9486116B017C0188
:100ED0002D893E894F89588D2F8F38A349A35AA356
:100EE00060912D0370912E03072E000C880B990B37
:100EF0000E9486112B013C0189899A89AB89BC89A2
:100F00008BA39CA3ADA3BEA32F8D38A149A15AA149
:100F1000C701B6010E946A124B015C012BA13CA1E2
:100F20004DA15EA1C301B2010E946A129B01AC01F6
:100F3000C501B4010E94F80F69837A838B839C8377
:100F40000D851E852F8538890FA318A729A73AA7D5
:100F50006091290370912A03072E000C880B990BCE
:100F60000E9486114B015C012FA138A549A55AA505
:100F7000C301B2010E946A122B013C012F8D38A1DE
:100F800049A15AA1C501B4010E946A129B01AC019A
:100F9000C301B2010E94F80F6D837E838F8398870F
:100FA0002BA13CA14DA15EA1C501B4010E946A1212
:100FB0004B015C012FA138A549A55AA5C701B6016F
:100FC0000E946A129B01AC01C501B4010E94F80F96
:100FD00069877A878B879C87CE0101960E943F03A1
:100FE000698D7A8D072E000C880B990B0E94861153
:100FF0002B013C016B8D7C8D072E000C880B990B0F
:101000000E9486114B015C016D8D7E8D072E000CB8
:10101000880B990B0E9486116B017C0129813A8112
:101020004B815C81C301B2010E946A126F8F78A369
:1010300089A39AA32D813E814F815885C501B401B2
:101040000E946A129B01AC016F8D78A189A19AA1BF
:101050000E94F90F6F8F78A389A39AA329853A85F7
:101060004B855C85C701B6010E946A129B01AC01E9
:101070006F8D78A189A19AA10E94F90F6F8F78A333
:1010800089A39AA32D853E854F855889C301B20156
:101090000E946A122B013C0129893A894B895C899B
:1010A000C501B4010E946A129B01AC01C301B201E7
:1010B0000E94F90F4B015C012D893E894F89588DA3
:1010C000C701B6010E946A129B01AC01C501B401BF
:1010D0000E94F90F2F8D38A149A15AA10E947810C2
:1010E00020E030E044E353E40E946A122BED3FE03D
:1010F00049E450E40E94DC106B017C0120E030E008
:10110000A9010E94D71087FF0AC020E030E044EB1D
:1011100053E4C701B6010E94F90F6B017C01C701BE
:10112000B601AA960FB6F894DEBF0FBECDBFDF9111
:10113000CF911F910F91FF90EF90DF90CF90BF90D4
:10114000AF909F908F907F906F905F904F90089599
:10115000382F2091370290913602213208F049C091
:10116000809113028111FCCF42E04093130230932F
:1011700012023FEF309311021092100220930F02DF
:10118000A6E1B2E04FEE51E0FA013E2F341B3217D8
:1011900018F43D913193F9CF1092EE012091EE01B8
:1011A000990F922B9093EE019091ED01913061F4A3
:1011B0001092ED019091EE019093BB009091BC00D4
:1011C00093FDF8CF95EC01C095EE9093BC00909103
:1011D00013029230E1F3909111029F3F79F08091D8
:1011E0001102803241F080911102803331F084E0AD
:1011F00005C081E003C082E001C083E010921502C7
:1012000010923702109214020895909113029111D6
:10121000FCCF613208F060E291E09093130290936A
:1012200012022FEF2093110210921002260F20932A
:101230000F029093EE019091EE01880F892B80931D
:10124000EE018091ED01813061F41092ED01809109
:10125000EE018093BB008091BC0083FDF8CF85EC4C
:1012600001C085EE8093BC00809113028130E1F3D0
:1012700080911002861710F460911002AFEEB1E079
:101280002DEC31E0F9018E2F821B861718F48D9119
:101290008193F9CF1092CC016093CB01862F0895F2
:1012A0001F93CF93DF93162FC9E2D3E09C8D21E0EB
:1012B0002093140290933602109215021092370276
:1012C000682F85ED92E00E946802612F85ED92E023
:1012D0000E94680281E00E94A808888FDF91CF9168
:1012E0001F9108951F93CF93DF93162FC9E2D3E088
:1012F0009B8D21E0209314029093360210921502E8
:1013000010923702682F85ED92E00E946802612FEB
:1013100085ED92E00E94680281E00E94A808888F13
:10132000DF91CF911F9108952091420330914303A3
:101330002330310511F0803210F40C9450090C94D4
:101340007209CF93C82F81E080931402C0933602B4
:10135000109215021092370285ED92E00E94680209
:1013600081E00E94A80881110FC061E08C2F0E94CB
:1013700005099091CB018091CC01981729F085ED5A
:1013800092E0CF910C9424028FEF9FEFCF910895BC
:1013900090E0FC01E452FF4F2491FC01E853FF4F21
:1013A0003491FC01EC54FF4FE491EE23B1F1222380
:1013B00039F1233091F038F42130A9F0223001F5D1
:1013C00084B58F7D12C0273091F02830A1F02430F1
:1013D000B9F4809180008F7D03C0809180008F7769
:1013E000809380000DC084B58F7784BD09C0809143
:1013F000B0008F7703C08091B0008F7D8093B000E4
:10140000F0E0EE0FFF1FE655FF4FA591B4918FB7A7
:10141000F894EC913E2B3C938FBF0895CF92DF92CE
:10142000EF92FF92CF93DF936C01990FEE08FF08C4
:10143000F7FE17C08DE20E94E905EC0166277727C9
:10144000CB016C197D098E099F094AE00E94F405C1
:101450008C0F9D1FDF91CF91FF90EF90DF90CF9089
:1014600008954AE0C701B601DF91CF91FF90EF9058
:10147000DF90CF900C94F405CF93DF93CDB7DEB718
:1014800060970FB6F894DEBF0FBECDBF789484B5D9
:10149000826084BD84B5816084BD85B5826085BD70
:1014A00085B5816085BD80916E00816080936E00FE
:1014B00010928100809181008260809381008091F0
:1014C00081008160809381008091800081608093A1
:1014D00080008091B10084608093B1008091B00061
:1014E00081608093B00080917A00846080937A005C
:1014F00080917A00826080937A0080917A008E7F5A
:1015000080937A0080917A00806880937A001092AC
:10151000C100E0914802F091490282E08083E091AD
:101520004402F09145021082E0914602F091470298
:1015300088E0808310925002E0914C02F0914D02BD
:1015400086E08083E0914A02F0914B0280818061C5
:101550008083E0914A02F0914B0280818860808311
:10156000E0914A02F0914B02808180688083E09193
:101570004A02F0914B0280818F7D80831092CC01D2
:101580001092CB01109215021092370210921302A2
:1015900081E0809312021092ED0182E10E94C8095D
:1015A00083E10E94C8098091B9008E7F8093B900C1
:1015B0008091B9008D7F8093B90080E28093B8005C
:1015C00085E48093BC006FE070E08DE10E94A1098A
:1015D0008934910561F06FE070E08EE10E94A1090D
:1015E0008934910509F03FC420E030E002C021E0D9
:1015F00030E083E090E09093430380934203823095
:10160000910539F589E1809344038EE18093450388
:1016100083E090E0909349038093480384E090E056
:1016200090934B0380934A0387E090E090934D039F
:1016300080934C0388E090E090934F0380934E0397
:1016400085E090E0909351038093500386E090E012
:1016500031C08330910509F4CFC3019709F4FBC36E
:101660002130310509F4FDC388E1809344038EE104
:101670008093450383E090E090934903809348036F
:1016800084E090E090934B0380934A0385E090E0E0
:1016900090934D0380934C0386E090E090934F032A
:1016A00080934E0387E090E0909351038093500322
:1016B00088E090E09093530380935203809142031B
:1016C0009091430383309105A9F460E081E20E9488
:1016D000940967E580E20E94940964E684E20E942E
:1016E000940960E285E20E94940960E086E20E942B
:1016F00094091CC0029731F468E083E20E947209E9
:1017000067E405C060E083E20E94720967E280E25C
:101710000E9472096CE080E00E94500960E281E062
:101720000E94500960E082E00E94500986E0E0E0FB
:10173000F1E0ABE3B3E001900D928A95E1F786E02A
:10174000E6E0F1E0A5E3B3E001900D928A95E1F7C0
:10175000E4EDF0E02491E0ECF0E08491882399F04E
:1017600090E0880F991FFC01E056FF4FA591B491BE
:10177000FC01E655FF4F859194918FB7F894EC9159
:10178000E22BEC938FBF8CB580648CBD1092BC01B2
:101790008CB580688CBD8CE391E00E94D70583E412
:1017A00091E00E94D7050E94D6010091C7011091D7
:1017B000C8012091C9013091CA016B017C01C01A96
:1017C000D10AE20AF30A97018601043611052105C0
:1017D000310508F40EC36093C7017093C80180936C
:1017E000C9019093CA0105EE12E036EEE32E32E015
:1017F000F32E8DEB91E09E878D876C01D8011696B4
:10180000ED91FC91179790818C91892B8083129692
:10181000ED91FC91139790818C9180958923808321
:1018200084E090E00197F1F71296ED91FC91139707
:1018300090818C91892B808380E190E00197F1F772
:101840001296ED91FC91139790818C91809589234C
:1018500080831696ED91FC91179790818C918095DD
:10186000892380831496ED91FC9115979081F7015F
:101870008081892309F074C00E94B101D8011896B3
:101880002D913C9119974901A12CB12CB8EA8B0EEE
:10189000B6E19B1EA11CB11CDC01CB01880D991D7A
:1018A000AA1DBB1DF80182879387A487B587D8013D
:1018B0001496ED91FC9115979081F7018081892311
:1018C00079F40E94B101D8011A968D909D90AD9047
:1018D000BC901D9786169706A806B90640F740C02B
:1018E0000E94B101D80118962D913C911997DC0105
:1018F000CB01820F931FA11DB11DF8018287938731
:10190000A487B587D8011496ED91FC911597908125
:10191000F7018081892379F00E94B101D8011A96DC
:101920008D909D90AD90BC901D9786169706A80649
:10193000B90640F715C00E94B101D80118962D9143
:101940003C911997A901455051091A962D913C9146
:101950001B97FA01E21BF30BAF01460F571F02C0A2
:1019600040E050E0BA0180E090E029E330E040E060
:1019700050E00E944B13D6018D919C9111978217D4
:10198000930711F02D933C93232B242B252B29F423
:101990008EEF90E0F601918380830E5E1F4F92E1FF
:1019A000E90EF11CA2E0CA0ED11CB3E00D321B07F8
:1019B00009F024CF8091440391E090931402809326
:1019C0003602109215021092370268EA85ED92E015
:1019D0000E94680281E00E94A8088093410366E0AB
:1019E000809144030E9405090E94D6018B018091D9
:1019F000CB0190E02091CC01821B91090697ACF4B9
:101A00008091540390915503892B89F30E94D6014C
:101A1000601B710B809154039091550386179707B3
:101A200030F781E08093560335C085ED92E00E9447
:101A30002402E82E85ED92E00E942402D82E85ED46
:101A400092E00E942402082F85ED92E00E94240279
:101A5000F82E85ED92E00E942402182F85ED92E089
:101A60000E9424023D2C212C91012E2930932A031F
:101A700020932903F88A1F862F853889202B3093DD
:101A80002C0320932B03982F8827812B90932E03D0
:101A900080932D038091450391E0909314028093ED
:101AA00036021092150210923702809142039091F3
:101AB0004303039731F460914A0370914B036068CC
:101AC00004C0609148037091490385ED92E00E9443
:101AD000680281E00E94A8088093410366E080913B
:101AE00045030E9405090E94D6018B018091CB011C
:101AF00090E02091CC01821B91090697ACF4809173
:101B0000540390915503892B89F30E94D601601BE1
:101B1000710B80915403909155038617970730F706
:101B200081E08093560374C08091420390914303F7
:101B30000397F9F485ED92E00E942402182F85EDB9
:101B400092E00E942402F82E85ED92E00E94240289
:101B5000C82E85ED92E00E942402082F85ED92E0C8
:101B60000E942402E82E85ED92E00E942402D82EE5
:101B700039C085ED92E00E942402F82E85ED92E0B6
:101B80000E942402182F8091420390914303892BD5
:101B9000A9F485ED92E00E942402082F85ED92E0E1
:101BA0000E942402C82E85ED92E00E942402D82EC5
:101BB00085ED92E00E942402E82E14C085ED92E0AB
:101BC0000E942402D82E85ED92E00E942402E82E85
:101BD00085ED92E00E942402082F85ED92E00E949C
:101BE0002402C82E812F90E09F2990933003809388
:101BF0002F032C2D30E0302B309332032093310310
:101C00002E2D30E0C9019D29909334038093330336
:101C10008091420390914303039771F481E0482F30
:101C200089831A821C821B821E821D8250E060E022
:101C30007C8180E09E810DC018861F828FEF682F07
:101C400089878A871C861B8640E058857FEF80E065
:101C50009C850E9435066B017C019B01AC010E94B2
:101C60002113882319F086E491E01AC04601570138
:101C7000E894B7F82FEF3FEF4FE75FE7C501B401F6
:101C80000E94211381110FC02FEF3FEF4FE75FE755
:101C9000C501B4010E94D71018162CF48AE491E013
:101CA0000E94D70572C02FEF3FEF4FE75FE4C701F7
:101CB000B6010E945D1218161CF48EE491E0F0CF7C
:101CC0002FEF3FEF4FE75FECC701B6010E94D7103F
:101CD00087FDF3CF20E030E0A901C701B6010E94E3
:101CE000D71087FF07C08DE20E94E905C701B60142
:101CF000905802C0C701B6012AE037ED43EA5BE322
:101D00000E94F90F2B013C010E9455114B015C010F
:101D10000E9484119B01AC01C301B2010E94F80F23
:101D20002B013C014AE0C501B4010E94F4058EE29A
:101D30000E94E90520E030E040E251E4C301B20135
:101D40000E946A124B015C010E9455112B01612C0B
:101D5000712C4AE0C301B2010E94F405C301B20133
:101D60000E9484119B01AC01C501B4010E94F80FCF
:101D700020E030E040E251E40E946A120E945511D6
:101D800080E090E04AE00E94F40583E491E00E9444
:101D9000D70520E030E044EB53E4C701B6010E94D0
:101DA000D710181644F0C701B6010E944E11709367
:101DB000C6016093C50100E010E0C8010E940E0A50
:101DC00082E591E00E94D705ED85FE858191919194
:101DD000FE87ED870E940E0A8FE591E00E94D705ED
:101DE0000F5F1F4F0530110541F784E591E00E9418
:101DF000D7050E94A701D7CC2130310511F08EE123
:101E000001C08DE1809345038093440388E090E016
:101E100090934B0380934A0389E090E090934903A9
:101E2000809348038AE090E090934F0380934E03A1
:101E30008BE090E090934D0380934C038CE090E016
:101E400090935303809352038DE090E0909351035D
:101E50008093500333CC2130310509F4D3CB88E192
:101E6000D2CB89E102CC60E270E089E10E94A10955
:101E7000019661F06FE070E08EE10E94A10921E01F
:101E800030E0CC97D1F080E090E0B5CB60E270E03C
:101E900088E10E94A109019609F410CC6FE070E07E
:101EA0008EE10E94A10931E020E0CC9709F030E0FA
:101EB000832F922F20E030E09ECB82E090E09BCBFE
:101EC000E8E3F2E01382128288EE93E0A0E0B0E053
:101ED00084839583A683B7832CE131E0318320830B
:101EE00025EC30E03587248724EC30E037872687DF
:101EF00020EC30E0318B208B21EC30E0338B228BD7
:101F000022EC30E0358B248B26EC30E0378B268BAF
:101F1000118E128E138E148EE5EDF2E01382128272
:101F200084839583A683B7838EE291E09183808337
:101F300086E0ECE0F1E0ABE3B3E001900D928A952E
:101F4000E1F786E0E2E1F1E0A5E3B3E001900D9274
:101F50008A95E1F7E9E2F3E084E090E0928F818FE7
:101F600014A613A615A628EC30E045E062E08DE843
:101F700093E00E94210528EC30E046E067E08BE723
:101F800093E00E94210528EC30E043E068E089E618
:101F900093E00E94210528EC30E044E069E087E509
:101FA00093E00E94210582E1EDE8F3E0A1EEB2E0CA
:101FB00001900D928A95E1F782E1EBE7F3E0A3EF60
:101FC000B2E001900D928A95E1F782E1E9E6F3E053
:101FD000A5E0B3E001900D928A95E1F782E1E7E593
:101FE000F3E0A7E1B3E001900D928A95E1F708953F
:101FF0005058BB27AA270E9410100C9423120E944D
:10200000151238F00E941C1220F039F49F3F19F489
:1020100026F40C94EB110EF4E095E7FB0C94E5111B
:10202000E92F0E94341258F3BA1762077307840726
:10203000950720F079F4A6F50C9456120EF4E0956D
:102040000B2EBA2FA02D0B01B90190010C01CA0172
:10205000A0011124FF27591B99F0593F50F4503E1D
:1020600068F11A16F040A22F232F342F4427585F0F
:10207000F3CF469537952795A795F0405395C9F727
:102080007EF41F16BA0B620B730B840BBAF09150DF
:10209000A1F0FF0FBB1F661F771F881FC2F70EC07E
:1020A000BA0F621F731F841F48F487957795679551
:1020B000B795F7959E3F08F0B0CF9395880F08F03D
:1020C0009927EE0F9795879508950E94151260F055
:1020D00080E891E009F49EEF0E941C1228F040E88D
:1020E00051E071F45EEF0CC00C94EB110C9456129D
:1020F000E92FE0780E94341240F3092E052AB1F34B
:10210000261737074807590738F00E2E07F8E0253D
:1021100069F0E025E0640AC0EF6307F8009407FA6D
:10212000DB01B9019D01DC01CA01AD01EF930E9401
:10213000F3100E9423120E94A8105F91552339F0DA
:102140002BED3FE049E450FD49EC0C94F90F089564
:10215000DF93DD27B92FBF7740E85FE31616170638
:1021600048075B0718F4D92F0E9462129F938F9340
:102170007F936F930E941D13E8E6F0E00E94EE113A
:102180000E9423122F913F914F915F910E947D12E7
:10219000DD2351F09058A2EA2AED3FE049EC5FE3DD
:1021A000D0785D270E941010DF910C9423120E94BA
:1021B000C11108F481E008950E94F0100C942312DC
:1021C0000E941C1258F00E94151240F029F45F3F43
:1021D00029F00C94E51151110C9457120C94EB1149
:1021E0000E94341268F39923B1F3552391F3951BA0
:1021F000550BBB27AA2762177307840738F09F5F28
:102200005F4F220F331F441FAA1FA9F335D00E2E94
:102210003AF0E0E832D091505040E695001CCAF701
:102220002BD0FE2F29D0660F771F881FBB1F2617C4
:1022300037074807AB07B0E809F0BB0B802DBF019B
:10224000FF2793585F4F3AF09E3F510578F00C946A
:10225000E5110C9457125F3FE4F3983ED4F3869552
:1022600077956795B795F7959F5FC9F7880F911D8B
:102270009695879597F90895E1E0660F771F881F77
:10228000BB1F621773078407BA0720F0621B730B2A
:10229000840BBA0BEE1F88F7E09508950E94551144
:1022A0006894B1110C94571208950E943C1288F062
:1022B0009F5798F0B92F9927B751B0F0E1F0660F0A
:1022C000771F881F991F1AF0BA95C9F714C0B1304B
:1022D00091F00E945612B1E008950C945612672FA7
:1022E000782F8827B85F39F0B93FCCF3869577957A
:1022F0006795B395D9F73EF4909580957095619563
:102300007F4F8F4F9F4F0895E89409C097FB3EF48D
:1023100090958095709561957F4F8F4F9F4F992332
:10232000A9F0F92F96E9BB279395F69587957795B0
:102330006795B795F111F8CFFAF4BB0F11F460FF70
:102340001BC06F5F7F4F8F4F9F4F16C0882311F0C8
:1023500096E911C0772321F09EE8872F762F05C0DC
:10236000662371F096E8862F70E060E02AF09A9577
:10237000660F771F881FDAF7880F9695879597F96C
:102380000895990F0008550FAA0BE0E8FEEF161606
:102390001706E807F907C0F012161306E407F50759
:1023A00098F0621B730B840B950B39F40A2661F0CD
:1023B000232B242B252B21F408950A2609F4A14070
:1023C000A6958FEF811D811D089597F99F6780E87D
:1023D00070E060E008959FEF80EC0895DF93CF9365
:1023E0001F930F93FF92EF92DF927B018C01689411
:1023F00006C0DA2EEF010E947D12FE01E894A5913D
:102400002591359145915591A6F3EF010E94101049
:10241000FE019701A801DA9469F7DF90EF90FF9031
:102420000F911F91CF91DF91089500240A94161601
:10243000170618060906089500240A9412161306B2
:10244000140605060895092E0394000C11F4882340
:1024500052F0BB0F40F4BF2B11F460FF04C06F5F5C
:102460007F4F8F4F9F4F089557FD9058440F551F32
:1024700059F05F3F71F04795880F97FB991F61F006
:102480009F3F79F087950895121613061406551F7D
:10249000F2CF4695F1DF08C0161617061806991FE9
:1024A000F1CF86957105610508940895E894BB27DE
:1024B00066277727CB0197F908950E94C11108F488
:1024C0008FEF08959B01AC0160E070E080E89FE32E
:1024D0000C94DC100E947D120C9423120E941512A1
:1024E00038F00E941C1220F0952311F00C94E51195
:1024F0000C94EB1111240C9457120E94341270F3B7
:10250000959FC1F3950F50E0551F629FF001729F98
:10251000BB27F00DB11D639FAA27F00DB11DAA1FA7
:10252000649F6627B00DA11D661F829F2227B00DF4
:10253000A11D621F739FB00DA11D621F839FA00D7F
:10254000611D221F749F3327A00D611D231F849FCF
:10255000600D211D822F762F6A2F11249F57504026
:102560009AF0F1F088234AF0EE0FFF1FBB1F661FA1
:10257000771F881F91505040A9F79E3F510580F06A
:102580000C94E5110C9457125F3FE4F3983ED4F39A
:10259000869577956795B795F795E7959F5FC1F70E
:1025A000FE2B880F911D9695879597F9089519F43C
:1025B00016F40C94EB110C9426130E943C12B8F301
:1025C0009923C9F3B6F39F57550B87FF0E94341325
:1025D0000024A0E640EA900180585695979528F48B
:1025E000805C660F771F881F20F026173707480783
:1025F00030F4621B730B840B202931294A2BA695DA
:1026000017940794202531254A2758F7660F771F1E
:10261000881F20F026173707480730F4620B730B2A
:10262000840B200D311D411DA09581F7B901842F28
:102630009158880F9695879508959B01AC010C944D
:102640006A120E94C111880B990B08959F3F31F0C7
:10265000915020F4879577956795B795880F911DD0
:102660009695879597F9089591505040660F771F7A
:10267000881FD2F70895DB018F939F930E948C13DC
:10268000BF91AF91A29F800D911DA39F900DB29F0E
:10269000900D11240895A1E21A2EAA1BBB1BFD0167
:1026A0000DC0AA1FBB1FEE1FFF1FA217B307E40731
:1026B000F50720F0A21BB30BE40BF50B661F771F89
:1026C000881F991F1A9469F7609570958095909569
:1026D0009B01AC01BD01CF010895052E97FB1EF4AF
:1026E00000940E94841357FD07D00E944B1307FCEF
:1026F00003D04EF40C948413509540953095219559
:102700003F4F4F4F5F4F089590958095709561951D
:102710007F4F8F4F9F4F08950E949D13A59F900D4F
:10272000B49F900DA49F800D911D11240895EE0F6C
:10273000FF1F0590F491E02D0994A29FB001B39F73
:10274000C001A39F700D811D1124911DB29F700DBA
:10275000811D1124911D089581E090E0F8940C945E
:06276000B113F894FFCF55
:102766005FFD9BFD0EFD9701EB014301018001809A
:102776000180FF7FFF7FFF7F000000003E01AB006E
:10278600D60085010701E500F90000000000680297
:10279600380298021402A3002402150252656164ED
:1027A6007921000D0A006E616E00696E66006F7613
:1027B60066003A00200A00202020206572723A2026
:0227C600000011
:107800000C94343C0C94513C0C94513C0C94513CE1
:107810000C94513C0C94513C0C94513C0C94513CB4
:107820000C94513C0C94513C0C94513C0C94513CA4
:107830000C94513C0C94513C0C94513C0C94513C94
:107840000C94513C0C94513C0C94513C0C94513C84
:107850000C94513C0C94513C0C94513C0C94513C74
:107860000C94513C0C94513C11241FBECFEFD8E036
:10787000DEBFCDBF11E0A0E0B1E0EAE8FFE702C063
:1078800005900D92A230B107D9F712E0A2E0B1E065
:1078900001C01D92AD30B107E1F70E942D3D0C945F
:1078A000C33F0C94003C982F95959595959595958B
:1078B000905D8F708A307CF0282F295A8091C0000B
:1078C00085FFFCCF9093C6008091C00085FFFCCF60
:1078D0002093C6000895282F205DF0CF982F809127
:1078E000C00085FFFCCF9093C6000895EF92FF92F1
:1078F0000F931F93EE24FF2487018091C00087FD22
:1079000017C00894E11CF11C011D111D81E2E8164D
:1079100081EAF80687E0080780E0180770F3E09135
:107920000401F091050109958091C00087FFE9CF1E
:107930008091C6001F910F91FF90EF9008950E94D3
:10794000763C982F8091C00085FFFCCF9093C600B5
:1079500091362CF490330CF09053892F089597555D
:10796000892F08951F930E949F3C182F0E949F3CCF
:107970001295107F810F1F9108951F93182F882350
:1079800021F00E94763C1150E1F71F9108951F935A
:10799000182F0E94763C803249F0809103018F5F5E
:1079A000809303018530C1F01F9108958091C0003C
:1079B00085FFFCCF84E18093C6008091C00085FFE5
:1079C000FCCF1093C6008091C00085FFFCCF80E102
:1079D0008093C6001F910895E0910401F091050184
:1079E00009951F9108950E94763C803241F0809164
:1079F00003018F5F80930301853081F008958091AA
:107A0000C00085FFFCCF84E18093C6008091C00058
:107A100085FFFCCF80E18093C6000895E0910401CA
:107A2000F09105010995089548EC50E08823A1F0F4
:107A30002D9A28EE33E0FA013197F1F721503040CA
:107A4000D1F72D9828EE33E0FA013197F1F7215064
:107A50003040D1F7815061F708953F924F925F9285
:107A60006F927F928F929F92AF92BF92CF92DF924E
:107A7000EF92FF920F931F93CF93DF93000082E06A
:107A80008093C00080E18093C4001092C50088E11B
:107A90008093C10086E08093C2005098589A259A3E
:107AA00081E00E94143D24E1F22E9EE1E92E85E959
:107AB000D82E0FE0C02E10E1B12EAA24A394B1E479
:107AC0009B2EA6E58A2EF2E57F2EE0E26E2E79E46B
:107AD000572E63E5462E50E5352E0E94763C8033C6
:107AE000B1F18133B9F1803409F46FC0813409F404
:107AF00076C0823409F485C0853409F488C08035A5
:107B000031F1823521F1813511F1853509F485C0D6
:107B1000863509F48DC0843609F496C0843709F49B
:107B200003C1853709F472C1863709F466C08091B4
:107B300003018F5F80930301853079F6E0910401A2
:107B4000F091050109950E94763C803351F60E9420
:107B5000F33CC3CF0E94763C803249F78091C0004D
:107B600085FFFCCFF092C6008091C00085FFFCCF5E
:107B70009092C6008091C00085FFFCCF8092C60025
:107B80008091C00085FFFCCF7092C6008091C0003C
:107B900085FFFCCF6092C6008091C00085FFFCCFBE
:107BA0005092C6008091C00085FFFCCF4092C60075
:107BB0008091C00085FFFCCF3092C6008091C0004C
:107BC00085FFFCCFB092C60088CF0E94763C8638F5
:107BD00008F4BDCF0E94763C0E94F33C7ECF0E9409
:107BE000763C803809F49CC0813809F40BC1823896
:107BF00009F430C1883909F48FC080E00E94C73C85
:107C00006CCF84E10E94BD3C0E94F33C66CF85E0CE
:107C10000E94BD3C0E94F33C60CF0E94763C809362
:107C200006010E94763C809307010E94F33C55CFE9
:107C30000E94763C803309F411C183E00E94BD3C70
:107C400080E00E94C73C49CF0E94763C80930902A5
:107C50000E94763C8093080280910C028E7F809374
:107C60000C020E94763C853409F409C18091080217
:107C700090910902892B89F000E010E00E94763C87
:107C8000F801E85FFE4F80830F5F1F4F809108026D
:107C9000909109020817190788F30E94763C8032F8
:107CA00009F045CF80910C0280FFF5C0609106017C
:107CB00070910701660F771F7093070160930601AB
:107CC000A0910802B09109021097C9F0E8E0F1E034
:107CD0009B01AD014E0F5F1FF999FECF32BD21BD53
:107CE000819180BDFA9AF99A2F5F3F4FE417F5070B
:107CF00099F76A0F7B1F70930701609306018091CB
:107D0000C00085FFFCCFF092C6008091C00085FFC7
:107D1000FCCFB092C600E1CE83E00E94C73CDDCE2E
:107D200082E00E94C73CD9CE0E94763C8093090233
:107D30000E94763C80930802809106019091070191
:107D4000880F991F90930701809306010E94763C4B
:107D5000853409F49AC080910C028E7F80930C02C6
:107D60000E94763C803209F0B8CE8091C00085FF39
:107D7000FCCFF092C600A0910802B09109021097C2
:107D8000C1F180910C02082F0170182F1695117007
:107D9000E0910601F0910701AF014F5F5F4FBA011B
:107DA00020E030E00023B1F4112339F49491809164
:107DB000C00085FFFCCF9093C6002F5F3F4FCB01E3
:107DC0000196FA012A173B0780F4BC014F5F5F4F11
:107DD000002351F3F999FECFF2BDE1BDF89A90B5B9
:107DE0008091C00085FFFCCFE6CF709307016093C0
:107DF00006018091C00085FDE5CE8091C00085FF21
:107E0000F8CFE0CE81E00E94C73C67CE0E94763C6E
:107E1000803209F08CCE8091C00085FFFCCFF092BB
:107E2000C6008091C00085FFFCCFE092C600809123
:107E3000C00085FFFCCFD092C6008091C00085FFB6
:107E4000FCCFC092C6008091C00085FFFCCFB092ED
:107E5000C60043CE80E10E94C73C3FCE0E94763CE4
:107E60000E94763C182F0E94763C112309F483C0AF
:107E7000113009F484C08FE00E94C73C2ECE80915F
:107E80000C02816080930C02F1CE80910C02816023
:107E900080930C0265CF809107018823880F880B9F
:107EA0008A2180930B028091060190910701880F2F
:107EB000991F90930701809306018091080280FF2B
:107EC00009C08091080290910902019690930902DD
:107ED00080930802F894F999FECF1127E0910601EA
:107EE000F0910701C8E0D1E0809108029091090269
:107EF000103091F40091570001700130D9F303E084
:107F000000935700E8950091570001700130D9F3B4
:107F100001E100935700E8950990199000915700EE
:107F200001700130D9F301E000935700E8951395F3
:107F3000103498F011270091570001700130D9F3E7
:107F400005E000935700E89500915700017001305B
:107F5000D9F301E100935700E8953296029709F0B2
:107F6000C7CF103011F00296E5CF11248091C000E8
:107F700085FFC5CEC8CE8EE10E94C73CAECD85E957
:0A7F80000E94C73CAACDF894FFCF81
:027F8A00800075
:040000030000780081
:00000001FF
